:100000000C94CD010C94F5010C94F5010C94F501C0
:100010000C94F5010C94F5010C94F5010C94F50188
:100020000C94F5010C94F5010C94F5010C94F50178
:100030000C94F5010C94F5010C94F5010C94F50168
:100040000C9443070C94F5010C9411070C94EB06E7
:100050000C94F5010C94F5010C94F5010C94F50148
:100060000C94F5010C94F50150415F4D415800503E
:10007000415F484947480050415F4C4F570050414D
:100080005F4D494E0031362062697473003820623A
:100090006974730044697361626C6564006E5246F2
:1000A00032344C30312B006E524632344C303100F9
:1000B0003235304B42505300324D42505300314D97
:1000C0004250530000000008000201000003040732
:1000D000000000000000000053544154555309092A
:1000E000203D203078253032782052585F44523DF0
:1000F00025782054585F44533D2578204D41585F62
:1001000052543D25782052585F505F4E4F3D257820
:100110002054585F46554C4C3D25780D0A005041FF
:1001200020506F77657209203D2025530D0A007E0F
:100130000077006F006800435243204C656E67747F
:100140006809203D2025530D0A0094008D0085008C
:100150004D6F64656C0909203D2025530D0A00A7E9
:10016000009D0044617461205261746509203D2046
:1001700025530D0A00BE00B800B00044594E50444B
:100180002F4645415455524500434F4E4649470975
:100190000052465F53455455500052465F4348094C
:1001A00000454E5F52584144445200454E5F414124
:1001B000090052585F50575F50302D360054585F39
:1001C00041444452090052585F414444525F503206
:1001D0002D350052585F414444525F50302D31005C
:1001E0002A2A2A2050524553532027542720746F1F
:1001F00020626567696E207472616E736D697474D4
:10020000696E6720746F20746865206F746865720A
:10021000206E6F646500524632342F6578616D70D0
:100220006C65732F47657474696E6753746172747B
:100230006564002A2A2A204348414E47494E4720F8
:10024000544F205245434549564520524F4C452076
:100250002D2D2050524553532027542720544F20F2
:10026000535749544348204241434B002A2A2A20ED
:100270004348414E47494E4720544F205452414E27
:10028000534D495420524F4C45202D2D205052455E
:1002900053532027522720544F2053574954434843
:1002A000204241434B0053656E7420726573706F3A
:1002B0006E73652000206D6963726F7365636F6E86
:1002C0006473002C20526F756E642D7472697020F7
:1002D00064656C617920002C20476F74207265730F
:1002E000706F6E7365200053656E742000466169FF
:1002F0006C65642C20726573706F6E736520746911
:100300006D6564206F75742E006661696C6564208C
:10031000746F2073656E64004E6F772073656E6432
:10032000696E673A200000000000250028002B00BD
:1003300000000000240027002A0004040404040430
:100340000404020202020202030303030303010284
:100350000408102040800102040810200102040853
:1003600010201112131415160A0B0C0D0E0F00019C
:10037000020304050D0A0025303278002030780091
:10038000255309203D000D0A0020307825303278B1
:1003900000255309203D00008D0711241FBECFEF1B
:1003A000D8E0DEBFCDBF11E0A0E0B1E0E6E1FFE1C3
:1003B00002C005900D92A832B107D9F721E0A8E25A
:1003C000B1E001C01D92AB3EB207E1F711E0CDEC08
:1003D000D1E004C02197FE010E947B0FCC3CD107E5
:1003E000C9F70E94C7070C94890F0C94000090E095
:1003F000FC01E25BFC4F2491865C9C4FFC018491E4
:10040000882399F090E0880F991FFC01E05DFC4F74
:10041000A591B491FC01EA5DFC4F859194918FB751
:10042000F894EC91E22BEC938FBF0895AF92BF92BA
:10043000CF92DF92EF92FF920F931F93CF93DF93B0
:100440006C017B018B01040F151FEB015E01AE18DF
:10045000BF08C017D10759F06991D601ED91FC9101
:100460000190F081E02DC6010995892B79F7C5012E
:10047000DF91CF911F910F91FF90EF90DF90CF9080
:10048000BF90AF900895FC01538D448D252F30E02F
:10049000842F90E0821B930B541710F0CF96089591
:1004A00001970895FC01918D828D981761F0A28DBE
:1004B000AE0FBF2FB11D5D968C91928D9F5F9F7384
:1004C000928F90E008958FEF9FEF0895FC01918D3A
:1004D000828D981731F0828DE80FF11D858D90E0A7
:1004E00008958FEF9FEF0895FC01918D228D892F44
:1004F00090E0805C9F4F821B91098F73992708952C
:1005000082E391E00E94740221E0892B09F420E04B
:10051000822F089580E090E0892B29F00E948002CC
:1005200081110C9400000895FC01A48DA80FB92F2F
:10053000B11DA35ABF4F2C91848D90E001968F730B
:100540009927848FA689B7892C93A089B1898C912A
:10055000837080648C93938D848D981306C0028879
:10056000F389E02D80818F7D80830895EF92FF9243
:100570000F931F93CF93DF93EC0181E0888F9B8DC6
:100580008C8D98131AC0E889F989808185FF15C080
:100590009FB7F894EE89FF896083E889F9898081A3
:1005A0008370806480839FBF81E090E0DF91CF9172
:1005B0001F910F91FF90EF900895F62E0B8D10E094
:1005C0000F5F1F4F0F731127E02E8C8D8E110CC003
:1005D0000FB607FCFACFE889F989808185FFF5CF4E
:1005E000CE010E949402F1CFEB8DEC0FFD2FF11D97
:1005F000E35AFF4FF0829FB7F8940B8FEA89FB898B
:1006000080818062CFCF0F931F93CF93DF938C01B4
:10061000D0E0C0E0F801EC0FFD1F6491662341F0CB
:1006200082E391E00E94B602892B11F02196F2CF6D
:10063000CE01DF91CF911F910F910895CF93DF935A
:10064000EC01888D8823B9F0AA89BB89E889F989EA
:100650008C9185FD03C0808186FD0DC00FB607FC1F
:10066000F7CF8C9185FFF2CF808185FFEDCFCE0152
:100670000E949402E9CFDF91CF91089590E0FC01B0
:10068000EC53FF4F2491FC01E25BFC4F3491FC01E1
:10069000E65CFC4FE491EE23C9F0222339F02330CD
:1006A00001F1A8F4213019F1223029F1F0E0EE0F28
:1006B000FF1FEA5DFC4FA591B4918FB7F894EC91C0
:1006C000611126C030953E233C938FBF089527309B
:1006D000A9F02830C9F0243049F7809180008F7D3F
:1006E00003C0809180008F7780938000DFCF84B536
:1006F0008F7784BDDBCF84B58F7DFBCF8091B00039
:100700008F778093B000D2CF8091B0008F7DF9CFEA
:100710003E2BDACF9CB59F7D9CBD9CB5937F9CBD45
:100720009CB59C7F9CBD9DB591609DBD682F8091BF
:10073000D0010E943E038FE090E00197F1F7089509
:1007400081E00C948A0380E00C948A03682F8091E6
:10075000CF019091D00189130C943E0308953FB7C7
:10076000F89480912D0190912E01A0912F01B091CC
:10077000300126B5A89B05C02F3F19F00196A11D99
:10078000B11D3FBFBA2FA92F982F8827BC01CD01DB
:10079000620F711D811D911D42E0660F771F881F3A
:1007A000991F4A95D1F708958F929F92AF92BF9269
:1007B000CF92DF92EF92FF924B015C010E94AF0358
:1007C0006B017C010E94AF036C197D098E099F09A2
:1007D000683E734081059105A8F321E0821A9108D3
:1007E000A108B10888EEC80E83E0D81EE11CF11CF8
:1007F00081149104A104B10429F7FF90EF90DF90D8
:10080000CF90BF90AF909F908F9008958EBD0000C5
:100810000DB407FEFDCF8EB50895CF93C82F0E946B
:10082000A3038C2F8F710E9406048FEF0E94060491
:10083000C82F0E94A0038C2FCF910895CF93C82F6B
:100840000E94A3038C2F0E940604C82F0E94A003BD
:100850008C2FCF91089581EE0C941E04CF93DF93DB
:10086000C82FD62F0E94A3038C2F8F7180620E9405
:100870000604C82F8D2F0E9406040E94A0038C2F0F
:10088000DF91CF91089580E00E940D0481FD0BC09F
:10089000682F626080E00E942E0465E070E080E0D6
:1008A00090E00C94D403089580E00E94A603809108
:1008B000DC019091DD018230910538F0880F991F9D
:1008C000880F991F05970197F1F78DE10E940D049C
:1008D00081FF10C08091DC019091DD018230910593
:1008E00038F0880F991F880F991F05970197F1F726
:1008F0000E942B0480E00E940D04682F6E7F80E030
:100900000E942E0482E00E940D04EEE6F3E0E491E2
:1009100061E070E001C0660FEA95EAF7682B82E0BB
:100920000C942E04EF92FF920F931F93CF93DF93BB
:10093000C82F7B01142F0E94A3038C2F8F7180621C
:100940000E940604082FE701115020F089910E94AF
:100950000604FACF0E94A003802FDF91CF911F9150
:100960000F91FF90EF9008950E94430480E00E9451
:100970000D04682F616080E00E942E0460E787E02C
:100980000E942E0481E00E94A6038091D601882354
:1009900071F04091DB0166ED71E08AE00E94920403
:1009A0008DE10E940D0481FF15C00C942B0482E0A0
:1009B0000E940D04EEE6F3E0E49121E030E001C096
:1009C000220FEA95EAF72095622F682382E00E94C1
:1009D0002E04E6CF08950F931F93CF93DF938C01DE
:1009E000CFECD1E04C85BC018AE00E9492044C859A
:1009F000B80180E10E9492046D8181E1DF91CF9185
:100A00001F910F910C942E04EF92FF920F931F935E
:100A1000CF93DF937C01C091D401DC2FC53008F067
:100A2000D4E08091D501CD1B8111C0E00E94A303C9
:100A300080EA0E9406048701D15030F0F8018191CC
:100A40008F010E940604F8CFC15020F080E00E9480
:100A50000604FACF0E94A00381E00E94A6038FEF54
:100A60000E941E048073D9F380E00E94A60360E711
:100A700087E00E942E0484FF0AC00E942B0480E0BD
:100A8000DF91CF911F910F91FF90EF90089581E03A
:100A9000F7CFDF92EF92FF920F931F93CF93DF93E5
:100AA000D82EE92EC091D401DC2FC43008F0D4E058
:100AB0008091D501CD1B8111C0E00E94A30381E686
:100AC0000E940604F82E0D2D1E2DD15038F08FEF08
:100AD0000E940604F80181938F01F7CFC15020F0E6
:100AE0008FEF0E940604FACF0E94A0038F2DDF91A2
:100AF000CF911F910F91FF90EF90DF900895CF93CA
:100B0000C82F682F82E391E00E94B6028C2FCC0F91
:100B1000990BCF910895FF920F931F93CF93DF937B
:100B2000C62FD42F9F938F9381E993E09F938F9348
:100B30000E94370BDC0F0F900F900F900F9009E879
:100B400013E0CD1791F0FF24F394FC0E8C2F0E943C
:100B50000D041F928F931F930F930E94370B0F90DA
:100B60000F900F900F90CF2DECCF86E893E09F93DE
:100B70008F930E94370B0F900F90DF91CF911F91B1
:100B80000F91FF9008952F923F924F925F926F9234
:100B90007F928F929F92AF92BF92CF92DF92EF920D
:100BA000FF920F931F93CF93DF931F92CDB7DEB7C2
:100BB000962E342E4DB65EB69F938F9380E893E0C9
:100BC0009F938F930E94370B390C0F900F900F90CB
:100BD0000F908CE7C82E83E0D82E97E7A92E93E0DC
:100BE000B92E931409F44AC06DB67EB62090DB018D
:100BF000022D10E08DB79EB7801B910B0FB6F894B5
:100C00009EBF0FBE8DBFEDB7FEB731967F01F1E0FD
:100C1000F90DF9830E94A303892D8F710E940604A8
:100C200047012A948FEF281631F00E940604F40140
:100C300081934F01F6CF0E94A003DF92CF920E94D2
:100C4000370B0E0D1F1D0F900F90015011090E153F
:100C50001F0568F0F80180811F928F93BF92AF92B9
:100C60000E94370B0F900F900F900F90EECF0FB6A2
:100C7000F8947EBE0FBE6DBE9980B3CF84E793E03B
:100C80009F938F930E94370B0F900F900FB6F8949D
:100C90005EBE0FBE4DBE0F90DF91CF911F910F91A1
:100CA000FF90EF90DF90CF90BF90AF909F908F908C
:100CB0007F906F905F904F903F902F900895CF93CB
:100CC000DF93E9E6F3E0E491CFECD1E04C85BC01A1
:100CD0008E2F0E949204E3E6F3E084916D810E94DE
:100CE0002E0482E00E940D04EFE6F3E0E49161E05F
:100CF00070E001C0660FEA95EAF7682B82E0DF91A9
:100D0000CF910C942E0487E10E940D048095817090
:100D100008958F929F92AF92BF920F931F93CF939C
:100D2000DF93CDB7DEB7A1970FB6F894DEBF0FBE45
:100D3000CDBF19A2423008F44AE08E010F5D1F4F6B
:100D4000842E912CB12CA12CA50194010E94590F45
:100D5000E62FB901CA01EA3044F5E05DD801EE930F
:100D60008D01232B242B252B79F790E080E0109721
:100D700069F0FD0101900020E9F73197AF014A1BAE
:100D80005B0BBD0182E391E00E941602A1960FB6B3
:100D9000F894DEBF0FBECDBFDF91CF911F910F91B1
:100DA000BF90AF909F908F900895E95CD7CF42E0BD
:100DB00050E065E271E082E391E00C941602CF937B
:100DC000DF930E940303EC010E94D7068C0F9D1F46
:100DD000DF91CF9108951F920F920FB60F921124B9
:100DE0002F933F934F935F936F937F938F939F9333
:100DF000AF93BF93EF93FF9382E391E00E9494023D
:100E0000FF91EF91BF91AF919F918F917F916F91E2
:100E10005F914F913F912F910F900FBE0F901F90B8
:100E200018951F920F920FB60F9211242F938F9344
:100E30009F93EF93FF93E0914201F09143018081F2
:100E4000E0914801F091490182FD1BC090818091A1
:100E50004B018F5F8F7320914C01821741F0E0911D
:100E60004B01F0E0EE5CFE4F958F80934B01FF91BC
:100E7000EF919F918F912F910F900FBE0F901F9028
:100E800018958081F4CF1F920F920FB60F92112404
:100E90002F933F938F939F93AF93BF93809129019B
:100EA00090912A01A0912B01B0912C013091280141
:100EB00023E0230F2D3758F50196A11DB11D209376
:100EC00028018093290190932A01A0932B01B093CC
:100ED0002C0180912D0190912E01A0912F01B091B4
:100EE00030010196A11DB11D80932D0190932E011B
:100EF000A0932F01B0933001BF91AF919F918F913B
:100F00003F912F910F900FBE0F901F90189526E8DC
:100F1000230F0296A11DB11DD2CFE2E3F1E01382AF
:100F2000128288EE93E0A0E0B0E084839583A683EC
:100F3000B78387E191E09183808385EC90E095878A
:100F4000848784EC90E09787868780EC90E0918B93
:100F5000808B81EC90E0938B828B82EC90E0958B80
:100F6000848B86EC90E0978B868B118E128E138E7D
:100F7000148EEFECF1E08AE0808388E081831482B4
:100F800080E28583168285E0848717820895CF9357
:100F9000DF93CDB7DEB728970FB6F894DEBF0FBE4C
:100FA000CDBF789484B5826084BD84B5816084BDF2
:100FB00085B5826085BD85B5816085BD80916E00F7
:100FC000816080936E001092810080918100826028
:100FD0008093810080918100816080938100809165
:100FE00080008160809380008091B1008460809354
:100FF000B1008091B00081608093B00080917A0050
:10100000846080937A0080917A00826080937A0075
:1010100080917A00816080937A0080917A00806864
:1010200080937A001092C100E0914201F091430157
:1010300082E08083E0913E01F0913F011082E091D7
:101040004001F091410180E1808310924A01E091DA
:101050004601F091470186E08083E0914401F091E0
:101060004501808180618083E0914401F0914501D8
:10107000808188608083E0914401F0914501808106
:1010800080688083E0914401F091450180818F7DEB
:10109000808370E060E08FE795E00E94EC0A809129
:1010A000CF019091D00189130E94F7018091D00166
:1010B0009091CF0198130E94F7011FB7F894809187
:1010C0003101811124C0E4E4F3E08491E8E5F3E028
:1010D0009491E82FF0E0EE0FFF1FE05DFC4FA5912B
:1010E000B491EC91E92321F461E08AE00E943E038F
:1010F0008AE00E94F7018CB580618CBD8CB580645C
:101100008CBD8DE00E94F7018BE00E94F701809179
:1011100031018F5F809331011FBF80E00E94A603E1
:1011200081E00E948A0365E070E080E090E00E9428
:10113000D4036CE080E00E942E046FE584E00E94FE
:101140002E0486E00E940D04877D182F10628BE923
:1011500090E0A0E0B0E08093DC019093DD01A093EB
:10116000DE01B093DF01612F86E00E942E0486E04D
:101170000E940D04181303C081E08093D30186E020
:101180000E940D04182F86E00E940D0445E550E0F2
:1011900060E070E04093DC015093DD016093DE017C
:1011A0007093DF01682F677D86E00E942E0486E041
:1011B0000E940D040E94A30380E50E94060483E7B9
:1011C0000E9406040E94A00360E08DE10E942E04AC
:1011D00060E08CE10E942E0460E787E00E942E040C
:1011E0006CE485E00E942E0482EE0E941E040E94A0
:1011F0002B040E94430480E00E940D04682F6E7F40
:1012000080E00E942E04115061E070E080E090E0E8
:101210001E3F18F060E070E0CB014AE00E948906B2
:101220000E94D70660E081E00E942E046FEF84E008
:101230000E942E046EE485E00E942E0486E192E076
:101240000E94DF0680EE91E00E94DF0686E00E94A9
:101250000D04682F676086E00E942E0486E091E00E
:101260000E94EB0480E091E00E945F060E94B404BB
:101270008FEF0E941E04282F30E0982F91701F924C
:101280009F93A90155954795477055275F934F93B5
:1012900084FB992790F91F929F9385FB992790F9DA
:1012A0001F929F9386FB222720F91F922F931F9254
:1012B0008F9388ED90E09F938F930E94370B42E0CD
:1012C0006AE083ED91E00E94C30544E06CE086ECA7
:1012D00091E00E948B0541E060E18DEB91E00E947E
:1012E000C30546E061E182EB91E00E948B0541E09D
:1012F00061E08BEA91E00E948B0541E062E081EAC7
:1013000091E00E948B0541E065E08AE991E00E944E
:101310008B0541E066E081E991E00E948B0541E0A8
:1013200060E089E891E00E948B0542E06CE18BE788
:1013300091E00E948B0586E00E940D0488720FB632
:10134000F894DEBF0FBECDBFE2E0F0E0803239F0AE
:1013500021E090E0883009F020E0E22FF92FEE0F35
:10136000FF1FEB58FE4F859194919F938F9383E6D7
:1013700091E09F938F930E94370BE091D301F0E0AF
:10138000EE0FFF1FE15AFE4F859194919F938F932B
:1013900080E591E09F938F930E94370B80E00E943D
:1013A0000D04182F81E00E940D040FB6F894DEBFE3
:1013B0000FBECDBF13FD04C0F0E0E0E0882331F0A4
:1013C000E2E0F0E012FD02C0E1E0F0E0EE0FFF1F0E
:1013D000E65BFE4F859194919F938F9387E391E015
:1013E0009F938F930E94370B86E00E940D04E82F95
:1013F000F0E0F595E795E370F0E0EE0FFF1FE15D9B
:10140000FE4F859194919F938F938EE191E09F93EE
:101410008F930E94370B0FB6F894DEBF0FBECDBF7F
:1014200000E010E0BB24B39480910C01882309F400
:101430003EC00E9454040E94AF036D837E838F835D
:10144000988788E193E00E9403036D817E818F81FC
:1014500098854AE00E9489060E94D706CE0105962B
:101460000E940405811104C089E093E00E94DF0618
:101470000E94B4040E94AF036B017C010E948306AA
:10148000811172C00E94AF036C197D098E099F09FA
:1014900061347D408340910588F38DEE92E00E9497
:1014A000DF0668EE73E080E090E00E94D403809154
:1014B0000C01811126C00E948306882311F10E942D
:1014C0008306882349F0CE0101960E94490560E712
:1014D00087E00E942E04F3CF0E945404CE010196AF
:1014E0000E9404050E94B40486EA92E00E9403036D
:1014F00069817A818B819C814AE00E9489060E94E1
:10150000D70682E391E00E947402892B91F082E376
:1015100091E00E9452020E94810F8435B1F48091C3
:101520000C01811106C08CE692E00E94DF06B092A9
:101530000C010115110509F477CF0E948002882360
:1015400009F472CF0E9400006FCF823591F780912D
:101550000C01882371F383E392E00E94DF0610926E
:101560000C010E94B404E5CFCE0101960E9449050A
:1015700060E787E00E942E040E94AF036B017C01AC
:1015800087EE92E00E9403036D817E818F819885B2
:101590004AE00E94890687ED92E00E940303698178
:1015A0007A818B819C814AE00E94890683EC92E0DB
:1015B0000E9403038D819E81AF81B885A7019601AA
:1015C000281B390B4A0B5B0BCA01B9014AE00E9488
:1015D000890685EB92E063CF0F931F93CF93DF9340
:1015E000009759F46115710541F4F0E0E0E0CF0196
:1015F000DF91CF911F910F9108958B01EC016EE067
:1016000070E081E090E00E94360DFC01892B69F3C7
:1016100080E883830115110571F01387028781E843
:1016200083838091E1019091E201892B21F4F09371
:10163000E201E093E1012097D1F2D187C087838155
:10164000826083838091E3019091E401892B79F694
:10165000F093E401E093E3018091E5019091E601CC
:10166000892B29F6F093E601E093E501C0CFB0E0C5
:10167000A0E0EDE3FBE00C94300FAE01495F5F4F5B
:10168000DA016D917D91AD0101EE11E0F8018281E9
:101690009381DC0113962C911397286013962C9359
:1016A0000E945C0BD8011296ED91FC912381277F5B
:1016B0002383E4E00C944C0FABE0B0E0E2E6FBE007
:1016C0000C94220F7C013B018A01FC0117821682D7
:1016D000838181FFC8C1CE0101965C01F70193812E
:1016E000F30193FD859193FF81913F01882309F4D4
:1016F00053C1853239F493FD859193FF81913F0168
:10170000853229F4B70190E00E94940EE7CF912C26
:10171000212C312CFFE1F31538F08B3211F190F4CC
:10172000803209F1833229F137FC3CC020ED280FCB
:101730002A3050F536FE20C08AE0989E200D1124F4
:10174000922E06C08D3291F0803371F7689430F894
:10175000F30193FD859193FF81913F018111DACFD0
:1017600021C0689431F8689432F8F2CF689433F865
:10177000EFCF689434F8ECCFEAE02E9E200D1124D0
:10178000222E689435F8E4CF8E3229F436FC04C159
:10179000689436F8DDCF8C3619F4689437F8D8CFD2
:1017A0008836B1F2982F9F7D95549330E0F08336C0
:1017B000A1F18337C1F1833509F063C02801F2E05C
:1017C0004F0E511CF801C080D180692D70E036FCAD
:1017D00002C06FEF7FEFC6010E94770E4C01689444
:1017E00037F882010AC00C5F1F4FFFE3F98388249A
:1017F0008394912C6501E89437F833FE2DC0522C68
:101800008114910471F5552009F468CFB70180E285
:1018100090E00E94940E5A94F6CFF801808189835B
:101820000E5F1F4FE4CF2801F2E04F0E511CF8016C
:10183000C080D180692D70E036FC02C06FEF7FEF71
:10184000C6010E94890E4C018201D5CFB70180E20A
:1018500090E00E94940E2A942814190409F0B0F71D
:10186000CECFF60137FC859137FE81916F01B7012C
:1018700090E00E94940E51105A94F1E08F1A910852
:10188000BFCF843619F0893609F077C0F80137FEEA
:101890006BC060817181828193810C5F1F4FF32D3A
:1018A000FF763F2E97FF09C09095809570956195C2
:1018B0007F4F8F4F9F4F689437F82AE030E0A501A3
:1018C0000E94C40EC82ECA188C2C432C36FE0CC0A5
:1018D000E89440F8C91440F434FE05C032FC03C05B
:1018E000F32DFE7E4F2E892C44FE95C0FE01EC0D9B
:1018F000F11D8081803309F087C0242D297E422E7E
:10190000842D8870582E43FC95C040FE8FC09C2CBF
:10191000821418F42C0C922C981844FE91C0B70134
:1019200080E390E00E94940E42FE09C088E790E0B8
:1019300041FE02C088E590E0B7010E94940EC914F0
:1019400008F48AC0CA94D12C9FEFC91AD90ACA0CCC
:10195000DB1CF60182916F01B70190E00E94940EAA
:10196000AC14BD04B1F74FCF60817181072E000C1C
:10197000880B990B0E5F1F4F92CFD32CE894D4F8AD
:101980002AE030E0853739F1232D297FD22E8F369A
:1019900001F148F48835A9F0F701868197812B96EB
:1019A000E2E10C943E0F803749F08837A9F7D4FE66
:1019B00002C06894D2F820E130E00DC06894D4F8F9
:1019C000F6CF34FE03C0822F8660D82E20E132E0AD
:1019D00002C028E030E0F801D7FE0FC060817181BD
:1019E000828193810C5F1F4FA5010E94C40EC82EF7
:1019F000CA183D2CE89437F867CF6081718190E078
:101A000080E00E5F1F4FF0CF42FC02C0839478CF7E
:101A10008394839475CF842D867809F471CFF6CFA3
:101A2000B70180E290E00E94940E83948214C0F388
:101A3000512C73CF522C5818821408F46ECFF8CF63
:101A4000842D867809F47BCF8BE241FE80E247FC4F
:101A50008DE2B70190E071CFB70180E390E00E9482
:101A6000940E9A946CCF8FEF9FEF99CF0F931F93A3
:101A7000CF93DF93869F8001879F100D969F100D57
:101A80001124C8010E94520DEC01009729F0A80111
:101A900070E060E00E94820ECE01DF91CF911F9135
:101AA0000F9108950F931F93CF93DF938230910589
:101AB00010F482E090E0E091E901F091EA0130E079
:101AC00020E0B0E0A0E0309799F42115310509F449
:101AD0004AC0281B390B24303105D8F58A819B81F7
:101AE0006115710589F1FB0193838283FE0111C0A9
:101AF000408151810281138148175907E0F048174E
:101B0000590799F4109761F012960C931297139657
:101B10001C933296CF01DF91CF911F910F910895C1
:101B20000093E9011093EA01F4CF2115310551F03A
:101B30004217530738F0A901DB019A01BD01DF010B
:101B4000F801C1CFEF01F9CF9093EA018093E90149
:101B5000CDCFFE01E20FF31F819391932250310903
:101B600039832883D7CF2091E7013091E801232BD7
:101B700041F420910F01309110013093E80120933E
:101B8000E70120910D0130910E012115310541F43D
:101B90002DB73EB74091110150911201241B350B16
:101BA000E091E701F091E801E217F307A0F42E1BA2
:101BB0003F0B2817390778F0AC014E5F5F4F2417B1
:101BC000350748F04E0F5F1F5093E8014093E7013F
:101BD000819391939FCFF0E0E0E09CCFCF93DF9390
:101BE0000097E9F0FC01329713821282A091E9017B
:101BF000B091EA01ED0130E020E01097A1F42081DE
:101C00003181820F931F2091E7013091E80128175D
:101C1000390709F061C0F093E801E093E701DF9133
:101C2000CF910895EA01CE17DF07E8F54A815B817D
:101C30009E0141155105B1F7E901FB83EA83499102
:101C40005991C40FD51FEC17FD0761F48081918174
:101C50000296840F951FE90199838883828193817D
:101C60009B838A83F0E0E0E012968D919C9113971C
:101C70000097B9F52D913C911197CD010296820FF5
:101C8000931F2091E7013091E8012817390739F6B1
:101C9000309751F51092EA011092E901B093E801F2
:101CA000A093E701BCCFD383C28340815181840FCD
:101CB000951FC817D90761F44E5F5F4F88819981DE
:101CC000480F591F518340838A819B81938382836C
:101CD0002115310509F0B0CFF093EA01E093E90155
:101CE0009ECFFD01DC01C0CF13821282D7CFFC0151
:101CF0000590615070400110D8F7809590958E0F37
:101D00009F1F0895DC0101C06D9341505040E0F7E2
:101D10000895FC016150704001900110D8F7809542
:101D200090958E0F9F1F08950F931F93CF93DF936E
:101D3000182F092FEB018B8181FD09C01FEF0FEFD9
:101D4000812F902FDF91CF911F910F91089582FFE6
:101D500014C02E813F818C819D81281739073CF466
:101D6000E881F981CF0101969983888310838E8160
:101D70009F8101969F838E83E3CFE885F985812F2C
:101D80000995892BA1F3DACFFA01AA27283051F15E
:101D9000203181F1E8946F936E7F6E5F7F4F8F4F9C
:101DA0009F4FAF4FB1E03ED0B4E03CD0670F781FFB
:101DB000891F9A1FA11D680F791F8A1F911DA11DE0
:101DC0006A0F711D811D911DA11D20D009F4689419
:101DD0003F912AE0269F11243019305D3193DEF6C1
:101DE000CF010895462F4770405D4193B3E00FD077
:101DF000C9F7F6CF462F4F70405D4A3318F0495D62
:101E000031FD4052419302D0A9F7EACFB4E0A69544
:101E10009795879577956795BA95C9F70097610566
:101E2000710508959B01AC010A2E069457954795BC
:101E300037952795BA95C9F7620F731F841F951FB1
:101E4000A01D08952F923F924F925F926F927F92C2
:101E50008F929F92AF92BF92CF92DF92EF92FF92BA
:101E60000F931F93CF93DF93CDB7DEB7CA1BDB0B66
:101E70000FB6F894DEBF0FBECDBF09942A8839880B
:101E800048885F846E847D848C849B84AA84B98412
:101E9000C884DF80EE80FD800C811B81AA81B9811E
:101EA000CE0FD11D0FB6F894DEBF0FBECDBFED0132
:101EB0000895A1E21A2EAA1BBB1BFD010DC0AA1F8B
:101EC000BB1FEE1FFF1FA217B307E407F50720F0A3
:101ED000A21BB30BE40BF50B661F771F881F991F1E
:101EE0001A9469F760957095809590959B01AC0167
:101EF000BD01CF010895EE0FFF1F0590F491E02D75
:101F000009949111089581568A5108F48052855898
:061F10000895F894FFCFD4
:101F1600314E6F646500324E6F646500010000EB60
:101F260001800000000000B602160243021E037480
:081F360002520266020D0A00CE
:00000001FF
